:0300000002088073
:0C088000787FE4F6D8FD75810702082D92
:10084D00E4FFFEE4FDFC0DBD00010CED64784C7081
:0C085D00F50FBF00010EBE01EABFF4E77A
:01086900226C
:10080000E5A0541F44E0F5A07580FFE5A0541F4407
:10081000C0F5A0E4F580E5A0541F4480F5A07580E4
:0D082000FFE5A0541F44A0F5A0E4F58022E0
:10086A00E5A0541F4480F5A08F80E5A0541F44A042
:06087A00F5A0E4F5802268
:10082D00120800E4FBE4FF12086A12084D7FFF1264
:10083D00086A12084D0BBB03EC7FFF12086A80FE9D
:00000001FF
