:030000000208688B
:0C086800787FE4F6D8FD758107020800D7
:10085800C0F9A4B0999282F880908883C6A1868E48
:0B087400EF1FAC0670011E4C70F62256
:10080000E5A0541F44A0F5A0E4F580E5A0541F44E2
:10081000C0F5A07580FFE5A0541F4480F5A0758049
:10082000FFE5A0541F44C0F5A07580FFE5A0541F4C
:1008300044E0F5A0900858E493F580E4FDED9008BD
:100840005893F5807F607EEA1208747F607EEA121A
:0808500008740DBD10E780E300
:00000001FF
