:030000000208AE45
:1008AE0053A01F75800043A0A00053A01F43A0C0FB
:1008BE000053A01F787FE4F6D8FD75812002090948
:100B6400C0F9A4B0999282F880908883C6A1868E39
:040B7400FEFDFBF790
:100B4C00C100040DFFFFFFC0010800010900010AEC
:070B5C0000010B01010C0078
:100B890053A01F8D80EF42A00053A01FE4F58022DF
:100AA900C2AF53A01FE4F58043A0A00053A01F4389
:100AB900A0C00053A01F7580FF43A0E00053A01FF2
:100AC90043A0800053A01FF58075B0FFD2B4D2B502
:050AD900D2C2D2C422CC
:100B3200C28E538EBF53890F438910758DFC758BFE
:0A0B420018C28FD2ABD28ED2AF22C0
:070B9900E4FF000FBF14FB95
:010BA0002232
:10080000E4FEFDFC75B0F0D2B4D2B5D2C2D2C412AF
:100810000B9920B4010C20B5037D010C20C2037D8F
:10082000020C20C4037D030CEC700D75B0FFD2B434
:10083000D2B5D2C2D2C4FF22EC6401600E75B0FF03
:10084000D2B4D2B5D2C2D2C47FFF2275B0FFD2B427
:10085000D2B5D2C2D2C4ED7004C2B48010BD0104BE
:10086000C2B58009BD0204C2C28002C2C4120B9983
:10087000E4FCE5B020E003E4FE0CE5B020E1037EFB
:10088000010CE5B020E2037E020CE5B020E3037E1C
:10089000030C75B0FFD2B4D2B5D2C2D2C4EC64019D
:0D08A00060037FFF22EE25E025E02D04FF20
:0108AD002228
:100A3400120800EF650860078F08E4F50A8009E5ED
:100A44000AC394145002050AE50A6414701BEF6586
:100A54000960168F09EF7005750B01800CE50B60BA
:0B0A640008E4F50BEFF46001227F00B6
:010A6F002264
:02094E00AD07F3
:100950007E007C001209CDAB07AA067511FF751247
:10096000FFC3EB9464EA940040137D641209DF74C2
:10097000642FF582740B3EF583E493F511C3EB9479
:100980000AEA940040207C007D0AAF03AE021209FF
:10099000DF7C007D0A1209DF74642DF582740B3C44
:1009A000F583E493F512AE02AF037C007D0A1209D1
:1009B000DF74642DF582740B3CF583E493C2AF754C
:0C09C0000DFF85110E85120FF510D2AF4F
:0109CC002208
:100ADE00E4FD7FC0120B89740D250CF8E6FD7FE056
:100AEE00120B89AF0C7401A807088002C333D8FC1F
:100AFE00FD7FC0120B89050CE50CB40403E4F50C64
:010B0E0022C4
:100B7800EF4E600C3000F9C200EF1F70F31E80F0DA
:010B8800224A
:100A7000120AA9120B32120800AB07EBC394014013
:100A8000F5EBD3941050EF7F147E00120B78120810
:100A900000EFB503E1AF0312094E120800EF70FA40
:090AA0007F147E00120B7880CD5A
:03001B00020B0FC6
:100B0F00C0E0C0D075D000C000C005C007758DFC17
:100B1F00758B18120ADED200D007D005D000D0D0C6
:030B2F00D0E032E1
:1008CE00020A70E493A3F8E493A34003F68001F2C6
:1008DE0008DFF48029E493A3F85407240CC8C3332B
:1008EE00C4540F4420C8834004F456800146F6DFFA
:1008FE00E4800B0102040810204080900B4CE47E33
:10090E00019360BCA3FF543F30E509541FFEE493EE
:10091E00A360010ECF54C025E060A840B8E493A3B5
:10092E00FAE493A3F8E493A3C8C582C8CAC583CAE0
:10093E00F0A3C8C582C8CAC583CADFE9DEE780BE98
:010B63000091
:1009CD00EF8DF0A4A8F0CF8CF0A428CE8DF0A42E3E
:0209DD00FE22F8
:1009DF00BC000BBE0029EF8DF084FFADF022E4CCFC
:1009EF00F875F008EF2FFFEE33FEEC33FCEE9DECC5
:1009FF00984005FCEE9DFE0FD5F0E9E4CEFD22ED0B
:100A0F00F8F5F0EE8420D21CFEADF075F008EF2F54
:100A1F00FFED33FD4007985006D5F0F222C398FD45
:050A2F000FD5F0EA22E2
:00000001FF
