:030000000208B83B
:1008B80053A01F75800043A0A00053A01F43A0C0F1
:1008C8000053A01F787FE4F6D8FD75812002091334
:100B6100C0F9A4B0999282F880908883C6A1868E3C
:0E0B7100C100040AFFFFFFFF01080001090098
:100B510053A01F8D80EF42A00053A01FE4F5802217
:100A7B00C2AF53A01FE4F5807DFF7F80120B51E4C2
:100A8B00FD7FA0120B517FC0120B517DFF7FE01237
:100A9B000B5153A01FE4F580D2B0D2B1D2B2D2B376
:090AAB00D2C4D2C2D2B5D2B422E9
:100B2600C28E538EBF53890F438910758DFC758B0A
:0A0B360018C28FD2ABD28ED2AF22CC
:070B8000E4FF000FBF32FB90
:010B8700224B
:10080000D2B0D2B1D2B2D2B3D2C4D2C2D2B5D2B4A3
:10081000C2B4120B8020B005D2B47F042220B105EF
:10082000D2B47F082220B205D2B47F0C2220B305B7
:10083000D2B47F1022D2B4120B80C2C4120B80201B
:10084000B005D2C47F012220B105D2C47F05222089
:10085000B205D2C47F092220B305D2C47F0D22D2B3
:10086000C4120B80C2C2120B8020B005D2C27F021C
:100870002220B105D2C27F062220B205D2C27F0A51
:100880002220B305D2C27F0E22D2C2120B80C2B583
:10089000120B8020B005D2B57F032220B105D2B55E
:1008A0007F072220B205D2B57F0B2220B305D2B537
:0808B0007F0F22D2B57F002268
:100B4000EF4E600C3000F9C200EF1F70F31E80F012
:010B50002282
:100A3E00120800AD07E5087020EDC39401402BEDC0
:100A4E00D3941050257F0A7E00120B40120800EF3F
:100A5E00B50517750801AF0522ED700E7F0AFE125F
:0C0A6E000B40120800EF7002F5087F003A
:010A7A002259
:02095800AD07E9
:10095A007E007C001209D7AB07AA06750EFF750F39
:10096A00FFC3EB9464EA940040137D641209E974AE
:10097A00612FF582740B3EF583E493F50EC3EB9475
:10098A000AEA940040207C007D0AAF03AE021209F5
:10099A00E97C007D0A1209E974612DF582740B3C29
:1009AA00F583E493F50FAE02AF037C007D0A1209CA
:1009BA00E974612DF582740B3CF583E493C2AF753B
:0C09CA000AFF850E0B850F0CF50DD2AF57
:0109D60022FE
:100AB400E4FD7FC0120B51740A2509F8E6FD7FE0BE
:100AC400120B51AF097401A807088002C333D8FC84
:100AD400FD7FC0120B510509E509C394044003E4EA
:020AE400F50912
:010AE60022ED
:100B0A00120A7B120B26120A3EA907E9C394014076
:0C0B1A00F5E9D3941050EF12095880EA5E
:03001B00020AE7EF
:100AE700C0E0C0D075D000C000C005C007758DFC40
:100AF700758B18120AB4D200D007D005D000D0D019
:030B0700D0E03209
:1008D800020B0AE493A3F8E493A34003F68001F221
:1008E80008DFF48029E493A3F85407240CC8C33321
:1008F800C4540F4420C8834004F456800146F6DFF0
:10090800E4800B0102040810204080900B71E47E03
:10091800019360BCA3FF543F30E509541FFEE493E4
:10092800A360010ECF54C025E060A840B8E493A3AB
:10093800FAE493A3F8E493A3C8C582C8CAC583CAD6
:10094800F0A3C8C582C8CAC583CADFE9DEE780BE8E
:010B7F000075
:1009D700EF8DF0A4A8F0CF8CF0A428CE8DF0A42E34
:0209E700FE22EE
:1009E900BC000BBE0029EF8DF084FFADF022E4CCF2
:1009F900F875F008EF2FFFEE33FEEC33FCEE9DECBB
:100A0900984005FCEE9DFE0FD5F0E9E4CEFD22ED00
:100A1900F8F5F0EE8420D21CFEADF075F008EF2F4A
:100A2900FFED33FD4007985006D5F0F222C398FD3B
:050A39000FD5F0EA22D8
:00000001FF
