:03000000020800F3
:1008000053A01F75800043A0A00053A01F43A0C0A9
:100810000053A01F787FE4F6D8FD75812002085BA5
:100A5A00C0F9A4B0999282F880908883C6A1868E44
:100A0200C100010E00020F0000C10101080001092E
:0D0A120000010A00010B01010C00010D00A4
:100A4A0053A01F8D80EF42A00053A01FE4F580221F
:1009AC00C2AF53A01FE4F58043A0A00053A01F4387
:1009BC00A0C00053A01F7580FF43A0E00053A01FF0
:0D09CC0043A0800053A01FF58075B0FF22EE
:100A2000C28E538EBF53890F758B18758DFCC28F84
:070A3000D2ABD28ED2AF223F
:1009D900E5B0F4540F14601214601224FE6011245F
:1009E900FC60102408700F7F00227F01227F022201
:0809F9007F03227F04227FFF2F
:010A010022D2
:100935001209D9EF650860078F08E4F50A8009E513
:100945000AC394145002050AE50A6414701BEF6586
:100955000960168F09EF7005750B01800CE50B60BA
:0B09650008E4F50BEFF46001227F00B6
:010970002264
:10097100EF6037C2AFEF24FE601514601F146021D1
:100981002403701FE50EB43B028011050E8014E5AF
:100991000E7005750E3B800B150E8007E4F50E8079
:0B09A10002B201E4F50FF510D2AF2206
:1008F400E50C700C850E0DE50D75F00A84FE80087C
:10090400E50D75F00A84AEF0E4FD7FC0120A4AEEEC
:10091400900A5A93FD7FE0120A4AAF0C7401A807AB
:10092400088002C333D8FCFD7FC0120A4A630C015D
:0109340022A0
:100A37001209AC120A203000FDC200120935120952
:030A47007180F3C8
:03001B000208A038
:1008A000C0E0C0F0C083C082C0D075D000C000C01E
:1008B00005C006C0073001240510E5107002050FC1
:1008C000C3E51094E8E50F94034011750F0075100F
:1008D00000050EE50E943C4003750E001208F4D29C
:1008E00000D007D006D005D000D0D0D082D083D0A1
:0408F000F0D0E03232
:10082000020A37E493A3F8E493A34003F68001F2AD
:1008300008DFF48029E493A3F85407240CC8C333D9
:10084000C4540F4420C8834004F456800146F6DFA8
:10085000E4800B0102040810204080900A02E47E2C
:10086000019360BCA3FF543F30E509541FFEE4939D
:10087000A360010ECF54C025E060A840B8E493A364
:10088000FAE493A3F8E493A3C8C582C8CAC583CA8F
:10089000F0A3C8C582C8CAC583CADFE9DEE780BE47
:010A1F0000D6
:00000001FF
