:03000000020800F3
:1008000053A01F75800043A0A00053A01F43A0C0A9
:100810000053A01F787FE4F6D8FD75812002085BA5
:100A7300C0F9A4B0999282F880908883C6A1868E2B
:100A3E00080ABFBFBFBFBFBFBFBFC1800108000153
:020A4E0009009D
:100A630053A01F8D80EF42A00053A01FE4F5802206
:10097A00C2AF53A01FE4F58043A0A00053A01F43B9
:10098A00A0C00053A01F7580FF43A0E00053A01F22
:0D099A0043A0800053A01FF58075B0FF2220
:100A1100C28E538EBF53890F758B18758DFCC28F93
:070A2100D2ABD28ED2AF224E
:070A8300D2A1120A8AD2A0E1
:070A8A00E4FF000FBF28FB91
:010A91002242
:0D0A9200120A83C2A1120A8AC2A0020A8AB7
:0C0A9F00C2A0C2A1120A85D2A1020A8ADC
:02091600AE072A
:10091800E4FDC2A0EE30E703D38001C392A1120A1E
:1009280085C2A0EE25E0FE0DBD08E7120A8330A1BE
:10093800047F0080027F01AE07C2A0120A8AAF06B8
:01094800228C
:1009F400E4FED2A1FDC2A0120A85EE25E0FE30A1DC
:0C0A040003430601C2A00DBD08EBAF06C5
:010A100022C3
:100A2800C2A0EF6003D38001C392A1120A85C2A0BD
:060A3800120A8AD2A1227D
:1008A000120A927F90120916EF700280157F0312D0
:1008B0000916EF7002800B120A927F91120916EF4F
:1008C0007006120A9F7F00221209F4E4FF120A2820
:1008D0001209F4EF120A517F01120A28120A9F7FAF
:0208E0000122F3
:1008E2007EBF7CBF7BBFED6020EF75F06484900A11
:1008F2007393FEEF75F00A8475F00A84E5F093FCB9
:10090200EF75F00A84E5F093FBC2AF8E0F8C108B6B
:0309120011D2AF50
:0109150022BF
:10094900E4FD7FC0120A63740A2508F8E6FD7FE01A
:10095900120A63AF087401A807088002C333D8FCE0
:10096900FD7FC0120A630508E508B40803E4F50829
:01097900225B
:1009D00012097AD2A0D2A1E4F512120A113000FD58
:1009E000C2007B007A0079121208A0AD07AF121284
:0409F00008E280E9B0
:03001B000209A730
:0D09A700C0E0C0D075D000C000C005C00782
:1009B4001209490509E509C394C84005750900D21F
:0109C4000032
:0B09C500D007D005D000D0D0D0E03229
:100820000209D0E493A3F8E493A34003F68001F215
:1008300008DFF48029E493A3F85407240CC8C333D9
:10084000C4540F4420C8834004F456800146F6DFA8
:10085000E4800B0102040810204080900A3EE47EF0
:10086000019360BCA3FF543F30E509541FFEE4939D
:10087000A360010ECF54C025E060A840B8E493A364
:10088000FAE493A3F8E493A3C8C582C8CAC583CA8F
:10089000F0A3C8C582C8CAC583CADFE9DEE780BE47
:010A500000A5
:100A5100BB010689828A83F0225002F722BBFE0184
:020A6100F3227E
:00000001FF
