:03000000020800F3
:0C080000787FE4F6D8FD75810C020847F3
:0A09BD00C0F9A4B0999282F880906E
:0F09A200010B00010C00010800010A000109FF10
:0B09B200EF1FAC0670011E4C70F62217
:10098B00E5A0541F4480F5A0850980E5A0541F44C1
:07099B00C0F5A0E4F5802285
:1008EE00E5A0541F44A0F5A0E4F580E5A0541F44F4
:1008FE00E0F5A07580FFE5A0541F44C0F5A0E4F517
:07090E00807509FF02098B4F
:10095900758911758C3C758AB0758D3C758BB0D2D3
:0A096900AFD2A9D2ABD28CD28E22FD
:10088C00E50875F00A84FFE50875F00A84ADF0E51B
:10089C00A0541F44C0F5A0E4F580E5A0541F44E02B
:1008AC00F5A0EF9009BD93F580E5A0541F44C0F569
:1008BC00A07580017F2C7E011209B2E4F580E5A0C1
:1008CC00541F44E0F5A0AF05EF93F580E5A0541F4D
:1008DC0044C0F5A07580027F2C7E011209B2E4F5AC
:0108EC00808B
:0108ED0022E8
:100973001208EE12095912088CE50A60F9E4F50A27
:0809830063090112098B80EEEB
:03000B0002093BAC
:10093B00C0E0C0D0758C3C758AB0050BE50BC39439
:0E094B00044006750B00750A01D0D0D0E032D2
:03001B00020915C2
:10091500C0E0C0D0758D3C758BB0050CE50CC3945B
:1009250014400E750C000508E508943C4003750855
:0609350000D0D0D0E0323A
:10080C00020973E493A3F8E493A34003F68001F286
:10081C0008DFF48029E493A3F85407240CC8C333ED
:10082C00C4540F4420C8834004F456800146F6DFBC
:10083C00E4800B01020408102040809009A2E47EA1
:10084C00019360BCA3FF543F30E509541FFEE493B1
:10085C00A360010ECF54C025E060A840B8E493A378
:10086C00FAE493A3F8E493A3C8C582C8CAC583CAA3
:10087C00F0A3C8C582C8CAC583CADFE9DEE780BE5B
:0109B1000045
:00000001FF
