:0300000002086C87
:0C086C00787FE4F6D8FD75810902087859
:10080000E4F580E5A0541F44A0F5A0E4F580E5A040
:10081000541F44E0F5A07580FFE5A0541F44C0F5C7
:10082000A0E4F5807508FFE5A0541F4480F5A0857D
:030830000880221B
:10085C00758901758C3C758AB0D2AFD2A9D28C2225
:0808780012080012085C80FE6A
:03000B00020833B5
:10083300C0E0C0D0758C3C758AB00509E509C39446
:100843000A4011750900630801E5A0541F4480F5AF
:09085300A0850880D0D0D0E0326D
:00000001FF
