:0300000002089B58
:0C089B00787FE4F6D8FD75810702086D37
:10088B00C0F9A4B0999282F880908883C6A1868E15
:0B08A700EF1FAC0670011E4C70F62223
:10080000E4F580E5A0541F44A0F5A0E4F580E5A040
:10081000541F44E0F5A07580FFE5A0541F44C0F5C7
:10082000A0E4F5807580FFE5A0541F4480F5A07515
:0E08300080FFE5A0541F44C0F5A0E4F580222F
:10083E00E5A0541F44C0F5A08F80E5A0541F44E0EE
:10084E00F5A0ED90088B93F5807F607EEA1208A7E5
:0F085E007580FFE5A0541F44C0F5A0E4F580228B
:10086D001208007D017F0112083E0D7F0212083E25
:0E087D000D7F0412083E0D7F0812083E80E534
:00000001FF
