:0300000002097A78
:0C097A00787FE4F6D8FD75810A02095F61
:0A099100C0F9A4B0999282F880909A
:0B098600EF1FAC0670011E4C70F62243
:10091500C2AF90800074FFF090A000E4F090C0009A
:0E092500F090E00074FFF0C293C297C2A322CC
:06093300C293C297D293AB
:10093900E4FEC297EF1392A300D29700C297EFC3C8
:0609490013FF0EBE08ECD6
:01094F002285
:0D096D00120933AF05120939C293C2972257
:1008CC00E4FD120933D2A3E4FFEDC313FD30A303FF
:1008DC00430580D29700C297000FBF08ECC293C2A9
:0508EC0097C2A3AF0557
:0108F10022E4
:1008F200E4FD7F8E12096D7D247F8012096D7D5982
:100902007F8212096D7D237F8412096D7D807F8E27
:0309120002096D6A
:0F095000EFC4540F75F00AA4FEEF540F2EFF22D0
:10089B007F811208CC8F087F831208CC8F097F854C
:1008AB001208CC8F0A53087F530A3FAF0812095026
:1008BB008F08AF091209508F09AF0A1209508F0A1E
:0108CB00220A
:0B085E0075F00A84E5F090099193FD0D
:1008690090C000E4F090E00074FFF07401A807085C
:100879008002C333D8FC90C000F090E000EDF07F17
:10088900F47E0112098690C000E4F090E00074FF44
:02089900F0224B
:10080000E50A75F00A8490099193FDE4FF120869E6
:10081000E50A7F0112085E7DBF7F02120869E509C3
:1008200075F00A8490099193FD7F03120869E50928
:100830007F0412085E7DBF7F05120869E50875F028
:100840000A8490099193FD7F06120869E50875F006
:0E0850000A84E5F090099193FD7F0702086984
:0E095F001209151208F212089B12080080F807
:00000001FF
