:03000000020800F3
:0C080000787FE4F6D8FD758109020847F6
:100A6100C0F9A4B0999282F880908883C6A1868E3D
:040A7100020803E78D
:1009ED00C2AFC28CC28E538E3F758901C28DC28F2C
:1009FD0090800074FFF090A000E4F090C000F090A3
:0A0A0D00E00074FFF0C290D29122C5
:100A1700C28CC28D758CFF758AF4D28C308DFDC265
:040A27008CC28D22CE
:100A2B00C28CC28D758CFC758A18D28C308DFDC230
:040A3B008CC28D22BA
:100A3F00E4FFD290120A17C290120A170FBF08F2E2
:010A4F002284
:10096C00C28EC28FE4F58DF58B120A3FD28E309178
:10097C0003308FFAC28E208F31AF8DEFFEAD8BED31
:10098C00FF7C007D0A1209177C007D111209057D80
:10099C0064120917EF2403F509E43EF508D3E509C1
:1009AC009482E5089400400A8002C28F7508037592
:0209BC0009E749
:0109BE002216
:1009BF0090C000E4F090E00074FFF07401A8070805
:1009CF008002C333D8FC90C000F090E000EDF0122D
:0E09DF000A2B90C000E4F090E00074FFF022BC
:10088C00E509B4E70FE508B4030A900A70E493FD98
:10089C00E4FF8061AE08AF097C007D641209177417
:1008AC00612FF582740A3EF583E493FD7F051209EE
:1008BC00BFAE08AF097C007D641209177E007F0A69
:1008CC00CFCDCFCECCCE12091774612FF582740A1E
:1008DC003EF583E493FD7F061209BFAE08AF097C99
:1008EC00007D0A12091774612DF582740A3CF58398
:0908FC00E493FD7F071209BF22FD
:100A50001209ED12096CE4FB12088C0BBB32F98011
:010A6000F2A3
:10080C00020A50E493A3F8E493A34003F68001F2A8
:10081C0008DFF48029E493A3F85407240CC8C333ED
:10082C00C4540F4420C8834004F456800146F6DFBC
:10083C00E4800B0102040810204080900A71E47ED1
:10084C00019360BCA3FF543F30E509541FFEE493B1
:10085C00A360010ECF54C025E060A840B8E493A378
:10086C00FAE493A3F8E493A3C8C582C8CAC583CAA3
:10087C00F0A3C8C582C8CAC583CADFE9DEE780BE5B
:010A75000080
:10090500EF8DF0A4A8F0CF8CF0A428CE8DF0A42E06
:02091500FE22C0
:10091700BC000BBE0029EF8DF084FFADF022E4CCC4
:10092700F875F008EF2FFFEE33FEEC33FCEE9DEC8D
:10093700984005FCEE9DFE0FD5F0E9E4CEFD22EDD3
:10094700F8F5F0EE8420D21CFEADF075F008EF2F1D
:10095700FFED33FD4007985006D5F0F222C398FD0E
:050967000FD5F0EA22AB
:00000001FF
