:030000000208985B
:0C089800787FE4F6D8FD75810702086A3D
:10088800C0F9A4B0999282F880908883C6A1868E18
:0B08A400EF1FAC0670011E4C70F62226
:100800007580FFE5A0541F4480F5A07580FFE5A02A
:10081000541F44C0F5A0E4F580E5A0541F44A0F5A2
:10082000A0E4F580E5A0541F44C0F5A0E4F580E500
:10083000A0541F44E0F5A07580FFE5A0541F44C0FC
:06084000F5A0E4F58022A2
:10084600E5A0541F44E0F5A0ED90088893F580E5F7
:10085600A0541F44C0F5A08F807FF47E011208A427
:04086600E4F5802213
:10086A001208007D017F011208460D7F0212084618
:0E087A000D7F041208460D7F0812084680E527
:00000001FF
