:03000000020800F3
:0C080000787FE4F6D8FD75810A020847F5
:0908FC000108FF010900010A00D6
:10088C00E4F580E5A0541F44A0F5A0E4F580E5A0B4
:10089C00541F44E0F5A07580FFE5A0541F44C0F53B
:1008AC00A0E4F580E5A0541F4480F5A07580FF22DC
:1008EC00758901758C3C758AB0D2AFD2A9D28C2295
:0809060012088C1208EC80FEBF
:03000B000208BC2C
:1008BC00C0E0C0D0758C3C758AB00509050AE50905
:1008CC00C3940A4006750900630801E50AC39464E1
:1008DC004006750A00630880850880D0D0D0E032CD
:10080C00020906E493A3F8E493A34003F68001F2F3
:10081C0008DFF48029E493A3F85407240CC8C333ED
:10082C00C4540F4420C8834004F456800146F6DFBC
:10083C00E4800B01020408102040809008FCE47E48
:10084C00019360BCA3FF543F30E509541FFEE493B1
:10085C00A360010ECF54C025E060A840B8E493A378
:10086C00FAE493A3F8E493A3C8C582C8CAC583CAA3
:10087C00F0A3C8C582C8CAC583CADFE9DEE780BE5B
:0109050000F1
:00000001FF
