:03000000020800F3
:0C080000787FE4F6D8FD758120020847DF
:0C091D0068656C6C6F20776F726C640072
:05094300010800C100E5
:07093C0053A01FE4F5802227
:1008FD0012093CE5A0541F4480F5A08F8002093CED
:10088C0012093CE5A0541F44A0F5A0E4F580120920
:10089C003CE5A0541F44C0F5A0E4F58012093CE5EA
:1008AC00A0541F44E0F5A07580FF12093C7FFF1295
:0508BC0008FD02093CEB
:1008E700758920758DFD758BFDD28E759850E4F551
:0608F7008EC299C2982296
:080934008F993099FDC2992250
:10090D008F828E83E493FF6006120934A380F52253
:03002300020929A6
:0B092900309807C298859908D2003270
:1008C10012088C1208E77E097F1D12090DC298D209
:1008D100ACD2AF3000FDC2ACAE08C200D2ACEEF477
:0608E100FF1208FD80ED8E
:10080C000208C1E493A3F8E493A34003F68001F239
:10081C0008DFF48029E493A3F85407240CC8C333ED
:10082C00C4540F4420C8834004F456800146F6DFBC
:10083C00E4800B0102040810204080900943E47E00
:10084C00019360BCA3FF543F30E509541FFEE493B1
:10085C00A360010ECF54C025E060A840B8E493A378
:10086C00FAE493A3F8E493A3C8C582C8CAC583CAA3
:10087C00F0A3C8C582C8CAC583CADFE9DEE780BE5B
:0109480000AE
:00000001FF
