:030000000208876C
:0C088700787FE4F6D8FD758107020800B8
:10086400EF1FAC0670011E4C70F6EF1FAC06700152
:050874001E4C70F6228D
:0E0879007F607EEA1208647F607EEA020864F7
:09089300E4FD1208790DBD06F91F
:01089C002239
:10082C00E5A0541F44C0F5A0E4F580E5A0541F4496
:10083C00E0F5A07580FFE5A0541F44A0F5A0E4F5F9
:02084C00802208
:10084E00E5A0541F4480F5A08F80E5A0541F44A05E
:06085E00F5A0E4F5802284
:1008000012082C7FFF12084EE4FB7DFFE4FAED2571
:10081000E0FDFF12084E1208790ABA08F1EBC39402
:0C0820000250031208930BBB03E080FEA3
:00000001FF
