:0300000002086D86
:0C086D00787FE4F6D8FD758107020800D2
:10084A00EF1FAC0670011E4C70F6EF1FAC0670016C
:05085A001E4C70F622A7
:0E085F007F607EEA12084A7F607EEA02084A45
:09087900E4FD12085F0DBD06F953
:010882002253
:10083400E5A0541F4480F5A08F80E5A0541F44A078
:06084400F5A0E4F580229E
:10080000E4F580E5A0541F44A0F5A07FFF12083452
:10081000E4FB7DFFE4FAED25E0FDFF120834120849
:100820005F0ABA08F1EBC3940250031208790BBBBC
:0408300003E080FE63
:00000001FF
