:0300000002088D66
:0C088D00787FE4F6D8FD75810702082D85
:0E0854001208777F607EEA1208627F607EEAFB
:10086200EF1FAC0670011E4C70F6EF1FAC06700154
:050872001E4C70F6228F
:10080000E5A0541F44E0F5A07580FFE5A0541F4407
:10081000C0F5A0E4F580E5A0541F4480F5A07580E4
:0D082000FFE5A0541F44A0F5A0E4F58022E0
:10087700E5A0541F4480F5A08F80E5A0541F44A035
:06088700F5A0E4F580225B
:0B089900E5A0541F44A0F5A08F8022B2
:10082D00120800E4FDE4FF1208547FFF1208540D76
:10083D00BD03F27FFF1208777F50120899120857F7
:07084D007F1012089980FEE4
:00000001FF
