:030000000208985B
:0C089800787FE4F6D8FD758107020800A7
:10087500EF1FAC0670011E4C70F6EF1FAC06700141
:050885001E4C70F6227C
:0E088A007F607EEA1208757F607EEA020875C4
:10083200E5A0541F44E0F5A07580FFE5A0541F44D5
:10084200C0F5A0E4F580E5A0541F4480F5A07580B2
:0D085200FFE5A0541F44A0F5A0E4F58022AE
:10085F00E5A0541F4480F5A08F80E5A0541F44A04D
:06086F00F5A0E4F5802273
:0B08A400E5A0541F44A0F5A08F8022A7
:10080000120832E4FDE4FF12085F12088A7FFF122B
:10081000085F12088A7F401208A412088AE4FF12B7
:1008200008A40DBD03DF7FFF12085FE4FF1208A4D8
:0208300080FE48
:00000001FF
