:03000000020800F3
:1008000053A01F75800043A0A00053A01F43A0C0A9
:100810000053A01F787FE4F6D8FD75812002085BA5
:1009BC00C0F9A4B0999282F880908883C6A1868EE3
:0409CC00FEFDFBF73A
:0E09E000C100010800010900010A00010B011D
:1009D00053A01F8D80EF42A00053A01FE4F580229A
:10093000C2AF53A01FE4F58043A0A00053A01F4303
:10094000A0C00053A01F7580FF43A0E00053A01F6C
:1009500043A0800053A01FF58075B0FFD2C4D2C25F
:010960002274
:1009A500C28E538EBF53890F758B18758DFCC28F00
:0709B500D2ABD28ED2AF22BB
:0709EF00E4FF000FBF14FB41
:0109F60022DE
:1008A000E4FEFDD2C4D2C2FCEC9009CC93F5B012A8
:1008B00009EF20C408EC25E025E004FD0E20C20964
:1008C000EC25E025E02402FD0E20B509EC25E0250D
:1008D000E02403FD0E20B409EC25E025E02404FD0E
:1008E0000E75B0FF0CBC04C0EED3940140037FFF33
:0308F00022AF052F
:0108F30022E2
:1008F4001208A0EF650860078F08E4F50A8009E58F
:100904000AC394145002050AE50A6414701BEF65C7
:100914000960168F09EF7005750B01800CE50B60FB
:0B09240008E4F50BEFF46001227F00F7
:01092F0022A5
:10098A00AE07E4FD7FC01209D0EE9009BC93FD7F4B
:0B099A00E01209D07D0F7FC00209D0E1
:10096100120930E4FF12098A1209A53000FDC20004
:100971001208F4AB07EBC3940140F0EBD394105091
:09098100EAEB14FF12098A80E27E
:03001B000209F7E0
:0309F700D20032F9
:10082000020961E493A3F8E493A34003F68001F284
:1008300008DFF48029E493A3F85407240CC8C333D9
:10084000C4540F4420C8834004F456800146F6DFA8
:10085000E4800B01020408102040809009E0E47E4F
:10086000019360BCA3FF543F30E509541FFEE4939D
:10087000A360010ECF54C025E060A840B8E493A364
:10088000FAE493A3F8E493A3C8C582C8CAC583CA8F
:10089000F0A3C8C582C8CAC583CADFE9DEE780BE47
:0109EE000008
:00000001FF
