:030000000208B83B
:1008B80053A01F75800043A0A00053A01F43A0C0F1
:1008C8000053A01F787FE4F6D8FD7581080209134C
:100A1000C0F9A4B0999282F880908883C6A1868E8E
:030A2800010800C2
:070A2000E4FF000FBF32FBF1
:010A270022AC
:0F09F000E4FFFE000FBF00010EBE13F7BF88F437
:0109FF0022D5
:100A000053A01F8D80EF42A00053A01FE4F5802269
:10095800C2AF53A01FE4F5807DFF7F80120A00E438
:10096800FD7FA0120A007FC0120A007DFF7FE012FF
:100978000A0053A01FE4F580D2B0D2B1D2B2D2B3EC
:09098800D2C4D2C2D2B5D2B4220D
:1009C200AE07E4FD7FC0120A00EE900A1093FD7F8D
:0B09D200E0120A007D0F7FC0020A0047
:10080000D2B0D2B1D2B2D2B3D2C4D2C2D2B5D2B4A3
:10081000C2B4120A2020B005D2B47F032220B10551
:10082000D2B47F072220B205D2B47F0B2220B305B9
:10083000D2B47F0F22D2B4120A20C2C4120A2020DE
:10084000B005D2C47F002220B105D2C47F0422208B
:10085000B205D2C47F082220B305D2C47F0C22D2B5
:10086000C4120A20C2C2120A2020B005D2C27F01DF
:100870002220B105D2C27F052220B205D2C27F0953
:100880002220B305D2C27F0D22D2C2120A20C2B5E5
:10089000120A2020B005D2B57F022220B105D2B5C0
:1008A0007F062220B205D2B57F0A2220B305D2B539
:0808B0007F0E22D2B57FFF226A
:10099100120800AD07E5087016EDC39410501F1240
:1009A10009F0120800EFB50515750801AF0522BD64
:1009B100FF0C1209F0120800BFFF03E4F5087FFFE6
:0109C1002213
:1009DD00120958120991AC07ECC3941050F5120985
:0309ED00C280F0D5
:1008D8000209DDE493A3F8E493A34003F68001F250
:1008E80008DFF48029E493A3F85407240CC8C33321
:1008F800C4540F4420C8834004F456800146F6DFF0
:10090800E4800B0102040810204080900A28E47E4D
:10091800019360BCA3FF543F30E509541FFEE493E4
:10092800A360010ECF54C025E060A840B8E493A3AB
:10093800FAE493A3F8E493A3C8C582C8CAC583CAD6
:10094800F0A3C8C582C8CAC583CADFE9DEE780BE8E
:010A2B0000CA
:00000001FF
